{
  "_format": "hh-sol-artifact-1",
  "contractName": "MyAI_NFT",
  "sourceName": "contracts/MyAI_NFT.sol",
  "abi": [
    {
      "inputs": [],
      "stateMutability": "nonpayable",
      "type": "constructor"
    },
    {
      "anonymous": false,
      "inputs": [
        {
          "indexed": true,
          "internalType": "address",
          "name": "owner",
          "type": "address"
        },
        {
          "indexed": true,
          "internalType": "address",
          "name": "approved",
          "type": "address"
        },
        {
          "indexed": true,
          "internalType": "uint256",
          "name": "tokenId",
          "type": "uint256"
        }
      ],
      "name": "Approval",
      "type": "event"
    },
    {
      "anonymous": false,
      "inputs": [
        {
          "indexed": true,
          "internalType": "address",
          "name": "owner",
          "type": "address"
        },
        {
          "indexed": true,
          "internalType": "address",
          "name": "operator",
          "type": "address"
        },
        {
          "indexed": false,
          "internalType": "bool",
          "name": "approved",
          "type": "bool"
        }
      ],
      "name": "ApprovalForAll",
      "type": "event"
    },
    {
      "anonymous": false,
      "inputs": [
        {
          "indexed": true,
          "internalType": "address",
          "name": "previousOwner",
          "type": "address"
        },
        {
          "indexed": true,
          "internalType": "address",
          "name": "newOwner",
          "type": "address"
        }
      ],
      "name": "OwnershipTransferred",
      "type": "event"
    },
    {
      "anonymous": false,
      "inputs": [
        {
          "indexed": true,
          "internalType": "address",
          "name": "from",
          "type": "address"
        },
        {
          "indexed": true,
          "internalType": "address",
          "name": "to",
          "type": "address"
        },
        {
          "indexed": true,
          "internalType": "uint256",
          "name": "tokenId",
          "type": "uint256"
        }
      ],
      "name": "Transfer",
      "type": "event"
    },
    {
      "inputs": [
        {
          "internalType": "address",
          "name": "to",
          "type": "address"
        },
        {
          "internalType": "uint256",
          "name": "tokenId",
          "type": "uint256"
        }
      ],
      "name": "approve",
      "outputs": [],
      "stateMutability": "nonpayable",
      "type": "function"
    },
    {
      "inputs": [
        {
          "internalType": "address",
          "name": "owner",
          "type": "address"
        }
      ],
      "name": "balanceOf",
      "outputs": [
        {
          "internalType": "uint256",
          "name": "",
          "type": "uint256"
        }
      ],
      "stateMutability": "view",
      "type": "function"
    },
    {
      "inputs": [],
      "name": "currentTokenId",
      "outputs": [
        {
          "internalType": "uint256",
          "name": "",
          "type": "uint256"
        }
      ],
      "stateMutability": "view",
      "type": "function"
    },
    {
      "inputs": [
        {
          "internalType": "uint256",
          "name": "tokenId",
          "type": "uint256"
        }
      ],
      "name": "getApproved",
      "outputs": [
        {
          "internalType": "address",
          "name": "",
          "type": "address"
        }
      ],
      "stateMutability": "view",
      "type": "function"
    },
    {
      "inputs": [
        {
          "internalType": "address",
          "name": "owner",
          "type": "address"
        },
        {
          "internalType": "address",
          "name": "operator",
          "type": "address"
        }
      ],
      "name": "isApprovedForAll",
      "outputs": [
        {
          "internalType": "bool",
          "name": "",
          "type": "bool"
        }
      ],
      "stateMutability": "view",
      "type": "function"
    },
    {
      "inputs": [
        {
          "internalType": "address",
          "name": "recipient",
          "type": "address"
        },
        {
          "internalType": "string",
          "name": "tokenUri",
          "type": "string"
        }
      ],
      "name": "mintNFT",
      "outputs": [
        {
          "internalType": "uint256",
          "name": "",
          "type": "uint256"
        }
      ],
      "stateMutability": "nonpayable",
      "type": "function"
    },
    {
      "inputs": [],
      "name": "name",
      "outputs": [
        {
          "internalType": "string",
          "name": "",
          "type": "string"
        }
      ],
      "stateMutability": "view",
      "type": "function"
    },
    {
      "inputs": [],
      "name": "owner",
      "outputs": [
        {
          "internalType": "address",
          "name": "",
          "type": "address"
        }
      ],
      "stateMutability": "view",
      "type": "function"
    },
    {
      "inputs": [
        {
          "internalType": "uint256",
          "name": "tokenId",
          "type": "uint256"
        }
      ],
      "name": "ownerOf",
      "outputs": [
        {
          "internalType": "address",
          "name": "",
          "type": "address"
        }
      ],
      "stateMutability": "view",
      "type": "function"
    },
    {
      "inputs": [],
      "name": "renounceOwnership",
      "outputs": [],
      "stateMutability": "nonpayable",
      "type": "function"
    },
    {
      "inputs": [
        {
          "internalType": "address",
          "name": "from",
          "type": "address"
        },
        {
          "internalType": "address",
          "name": "to",
          "type": "address"
        },
        {
          "internalType": "uint256",
          "name": "tokenId",
          "type": "uint256"
        }
      ],
      "name": "safeTransferFrom",
      "outputs": [],
      "stateMutability": "nonpayable",
      "type": "function"
    },
    {
      "inputs": [
        {
          "internalType": "address",
          "name": "from",
          "type": "address"
        },
        {
          "internalType": "address",
          "name": "to",
          "type": "address"
        },
        {
          "internalType": "uint256",
          "name": "tokenId",
          "type": "uint256"
        },
        {
          "internalType": "bytes",
          "name": "data",
          "type": "bytes"
        }
      ],
      "name": "safeTransferFrom",
      "outputs": [],
      "stateMutability": "nonpayable",
      "type": "function"
    },
    {
      "inputs": [
        {
          "internalType": "address",
          "name": "operator",
          "type": "address"
        },
        {
          "internalType": "bool",
          "name": "approved",
          "type": "bool"
        }
      ],
      "name": "setApprovalForAll",
      "outputs": [],
      "stateMutability": "nonpayable",
      "type": "function"
    },
    {
      "inputs": [
        {
          "internalType": "bytes4",
          "name": "interfaceId",
          "type": "bytes4"
        }
      ],
      "name": "supportsInterface",
      "outputs": [
        {
          "internalType": "bool",
          "name": "",
          "type": "bool"
        }
      ],
      "stateMutability": "view",
      "type": "function"
    },
    {
      "inputs": [],
      "name": "symbol",
      "outputs": [
        {
          "internalType": "string",
          "name": "",
          "type": "string"
        }
      ],
      "stateMutability": "view",
      "type": "function"
    },
    {
      "inputs": [
        {
          "internalType": "uint256",
          "name": "tokenId",
          "type": "uint256"
        }
      ],
      "name": "tokenURI",
      "outputs": [
        {
          "internalType": "string",
          "name": "",
          "type": "string"
        }
      ],
      "stateMutability": "view",
      "type": "function"
    },
    {
      "inputs": [
        {
          "internalType": "address",
          "name": "from",
          "type": "address"
        },
        {
          "internalType": "address",
          "name": "to",
          "type": "address"
        },
        {
          "internalType": "uint256",
          "name": "tokenId",
          "type": "uint256"
        }
      ],
      "name": "transferFrom",
      "outputs": [],
      "stateMutability": "nonpayable",
      "type": "function"
    },
    {
      "inputs": [
        {
          "internalType": "address",
          "name": "newOwner",
          "type": "address"
        }
      ],
      "name": "transferOwnership",
      "outputs": [],
      "stateMutability": "nonpayable",
      "type": "function"
    }
  ],
  "bytecode": "0x60806040523480156200001157600080fd5b506040518060400160405280600881526020017f4d7941495f4e46540000000000000000000000000000000000000000000000008152506040518060400160405280600681526020017f4d41494e4654000000000000000000000000000000000000000000000000000081525081600090816200008f919062000412565b508060019081620000a1919062000412565b505050620000c4620000b8620000ca60201b60201c565b620000d260201b60201c565b620004f9565b600033905090565b6000600660009054906101000a900473ffffffffffffffffffffffffffffffffffffffff16905081600660006101000a81548173ffffffffffffffffffffffffffffffffffffffff021916908373ffffffffffffffffffffffffffffffffffffffff1602179055508173ffffffffffffffffffffffffffffffffffffffff168173ffffffffffffffffffffffffffffffffffffffff167f8be0079c531659141344cd1fd0a4f28419497f9722a3daafe3b4186f6b6457e060405160405180910390a35050565b600081519050919050565b7f4e487b7100000000000000000000000000000000000000000000000000000000600052604160045260246000fd5b7f4e487b7100000000000000000000000000000000000000000000000000000000600052602260045260246000fd5b600060028204905060018216806200021a57607f821691505b60208210810362000230576200022f620001d2565b5b50919050565b60008190508160005260206000209050919050565b60006020601f8301049050919050565b600082821b905092915050565b6000600883026200029a7fffffffffffffffffffffffffffffffffffffffffffffffffffffffffffffffff826200025b565b620002a686836200025b565b95508019841693508086168417925050509392505050565b6000819050919050565b6000819050919050565b6000620002f3620002ed620002e784620002be565b620002c8565b620002be565b9050919050565b6000819050919050565b6200030f83620002d2565b620003276200031e82620002fa565b84845462000268565b825550505050565b600090565b6200033e6200032f565b6200034b81848462000304565b505050565b5b8181101562000373576200036760008262000334565b60018101905062000351565b5050565b601f821115620003c2576200038c8162000236565b62000397846200024b565b81016020851015620003a7578190505b620003bf620003b6856200024b565b83018262000350565b50505b505050565b600082821c905092915050565b6000620003e760001984600802620003c7565b1980831691505092915050565b6000620004028383620003d4565b9150826002028217905092915050565b6200041d8262000198565b67ffffffffffffffff811115620004395762000438620001a3565b5b62000445825462000201565b6200045282828562000377565b600060209050601f8311600181146200048a576000841562000475578287015190505b620004818582620003f4565b865550620004f1565b601f1984166200049a8662000236565b60005b82811015620004c4578489015182556001820191506020850194506020810190506200049d565b86831015620004e45784890151620004e0601f891682620003d4565b8355505b6001600288020188555050505b505050505050565b612a4380620005096000396000f3fe608060405234801561001057600080fd5b50600436106101155760003560e01c8063715018a6116100a2578063b88d4fde11610071578063b88d4fde146102cc578063c87b56dd146102e8578063e985e9c514610318578063eacabe1414610348578063f2fde38b1461037857610115565b8063715018a61461026a5780638da5cb5b1461027457806395d89b4114610292578063a22cb465146102b057610115565b8063095ea7b3116100e9578063095ea7b3146101b657806323b872dd146101d257806342842e0e146101ee5780636352211e1461020a57806370a082311461023a57610115565b80629a9b7b1461011a57806301ffc9a71461013857806306fdde0314610168578063081812fc14610186575b600080fd5b610122610394565b60405161012f919061188b565b60405180910390f35b610152600480360381019061014d9190611912565b61039a565b60405161015f919061195a565b60405180910390f35b61017061047c565b60405161017d9190611a05565b60405180910390f35b6101a0600480360381019061019b9190611a53565b61050e565b6040516101ad9190611ac1565b60405180910390f35b6101d060048036038101906101cb9190611b08565b610554565b005b6101ec60048036038101906101e79190611b48565b61066b565b005b61020860048036038101906102039190611b48565b6106cb565b005b610224600480360381019061021f9190611a53565b6106eb565b6040516102319190611ac1565b60405180910390f35b610254600480360381019061024f9190611b9b565b610771565b604051610261919061188b565b60405180910390f35b610272610828565b005b61027c61083c565b6040516102899190611ac1565b60405180910390f35b61029a610866565b6040516102a79190611a05565b60405180910390f35b6102ca60048036038101906102c59190611bf4565b6108f8565b005b6102e660048036038101906102e19190611d69565b61090e565b005b61030260048036038101906102fd9190611a53565b610970565b60405161030f9190611a05565b60405180910390f35b610332600480360381019061032d9190611dec565b610a15565b60405161033f919061195a565b60405180910390f35b610362600480360381019061035d9190611ecd565b610aa9565b60405161036f919061188b565b60405180910390f35b610392600480360381019061038d9190611b9b565b610af0565b005b60075481565b60007f80ac58cd000000000000000000000000000000000000000000000000000000007bffffffffffffffffffffffffffffffffffffffffffffffffffffffff1916827bffffffffffffffffffffffffffffffffffffffffffffffffffffffff1916148061046557507f5b5e139f000000000000000000000000000000000000000000000000000000007bffffffffffffffffffffffffffffffffffffffffffffffffffffffff1916827bffffffffffffffffffffffffffffffffffffffffffffffffffffffff1916145b80610475575061047482610b73565b5b9050919050565b60606000805461048b90611f58565b80601f01602080910402602001604051908101604052809291908181526020018280546104b790611f58565b80156105045780601f106104d957610100808354040283529160200191610504565b820191906000526020600020905b8154815290600101906020018083116104e757829003601f168201915b5050505050905090565b600061051982610bdd565b6004600083815260200190815260200160002060009054906101000a900473ffffffffffffffffffffffffffffffffffffffff169050919050565b600061055f826106eb565b90508073ffffffffffffffffffffffffffffffffffffffff168373ffffffffffffffffffffffffffffffffffffffff16036105cf576040517f08c379a00000000000000000000000000000000000000000000000000000000081526004016105c690611ffb565b60405180910390fd5b8073ffffffffffffffffffffffffffffffffffffffff166105ee610c28565b73ffffffffffffffffffffffffffffffffffffffff16148061061d575061061c81610617610c28565b610a15565b5b61065c576040517f08c379a00000000000000000000000000000000000000000000000000000000081526004016106539061208d565b60405180910390fd5b6106668383610c30565b505050565b61067c610676610c28565b82610ce9565b6106bb576040517f08c379a00000000000000000000000000000000000000000000000000000000081526004016106b29061211f565b60405180910390fd5b6106c6838383610d7e565b505050565b6106e68383836040518060200160405280600081525061090e565b505050565b6000806106f783611077565b9050600073ffffffffffffffffffffffffffffffffffffffff168173ffffffffffffffffffffffffffffffffffffffff1603610768576040517f08c379a000000000000000000000000000000000000000000000000000000000815260040161075f9061218b565b60405180910390fd5b80915050919050565b60008073ffffffffffffffffffffffffffffffffffffffff168273ffffffffffffffffffffffffffffffffffffffff16036107e1576040517f08c379a00000000000000000000000000000000000000000000000000000000081526004016107d89061221d565b60405180910390fd5b600360008373ffffffffffffffffffffffffffffffffffffffff1673ffffffffffffffffffffffffffffffffffffffff168152602001908152602001600020549050919050565b6108306110b4565b61083a6000611132565b565b6000600660009054906101000a900473ffffffffffffffffffffffffffffffffffffffff16905090565b60606001805461087590611f58565b80601f01602080910402602001604051908101604052809291908181526020018280546108a190611f58565b80156108ee5780601f106108c3576101008083540402835291602001916108ee565b820191906000526020600020905b8154815290600101906020018083116108d157829003601f168201915b5050505050905090565b61090a610903610c28565b83836111f8565b5050565b61091f610919610c28565b83610ce9565b61095e576040517f08c379a00000000000000000000000000000000000000000000000000000000081526004016109559061211f565b60405180910390fd5b61096a84848484611364565b50505050565b606060086000838152602001908152602001600020805461099090611f58565b80601f01602080910402602001604051908101604052809291908181526020018280546109bc90611f58565b8015610a095780601f106109de57610100808354040283529160200191610a09565b820191906000526020600020905b8154815290600101906020018083116109ec57829003601f168201915b50505050509050919050565b6000600560008473ffffffffffffffffffffffffffffffffffffffff1673ffffffffffffffffffffffffffffffffffffffff16815260200190815260200160002060008373ffffffffffffffffffffffffffffffffffffffff1673ffffffffffffffffffffffffffffffffffffffff16815260200190815260200160002060009054906101000a900460ff16905092915050565b6000610ab36110b4565b60076000815480929190610ac69061226c565b919050555060006007549050610adc84826113c0565b610ae681846113de565b8091505092915050565b610af86110b4565b600073ffffffffffffffffffffffffffffffffffffffff168173ffffffffffffffffffffffffffffffffffffffff1603610b67576040517f08c379a0000000000000000000000000000000000000000000000000000000008152600401610b5e90612326565b60405180910390fd5b610b7081611132565b50565b60007f01ffc9a7000000000000000000000000000000000000000000000000000000007bffffffffffffffffffffffffffffffffffffffffffffffffffffffff1916827bffffffffffffffffffffffffffffffffffffffffffffffffffffffff1916149050919050565b610be681611403565b610c25576040517f08c379a0000000000000000000000000000000000000000000000000000000008152600401610c1c9061218b565b60405180910390fd5b50565b600033905090565b816004600083815260200190815260200160002060006101000a81548173ffffffffffffffffffffffffffffffffffffffff021916908373ffffffffffffffffffffffffffffffffffffffff160217905550808273ffffffffffffffffffffffffffffffffffffffff16610ca3836106eb565b73ffffffffffffffffffffffffffffffffffffffff167f8c5be1e5ebec7d5bd14f71427d1e84f3dd0314c0f7b2291e5b200ac8c7c3b92560405160405180910390a45050565b600080610cf5836106eb565b90508073ffffffffffffffffffffffffffffffffffffffff168473ffffffffffffffffffffffffffffffffffffffff161480610d375750610d368185610a15565b5b80610d7557508373ffffffffffffffffffffffffffffffffffffffff16610d5d8461050e565b73ffffffffffffffffffffffffffffffffffffffff16145b91505092915050565b8273ffffffffffffffffffffffffffffffffffffffff16610d9e826106eb565b73ffffffffffffffffffffffffffffffffffffffff1614610df4576040517f08c379a0000000000000000000000000000000000000000000000000000000008152600401610deb906123b8565b60405180910390fd5b600073ffffffffffffffffffffffffffffffffffffffff168273ffffffffffffffffffffffffffffffffffffffff1603610e63576040517f08c379a0000000000000000000000000000000000000000000000000000000008152600401610e5a9061244a565b60405180910390fd5b610e708383836001611444565b8273ffffffffffffffffffffffffffffffffffffffff16610e90826106eb565b73ffffffffffffffffffffffffffffffffffffffff1614610ee6576040517f08c379a0000000000000000000000000000000000000000000000000000000008152600401610edd906123b8565b60405180910390fd5b6004600082815260200190815260200160002060006101000a81549073ffffffffffffffffffffffffffffffffffffffff02191690556001600360008573ffffffffffffffffffffffffffffffffffffffff1673ffffffffffffffffffffffffffffffffffffffff168152602001908152602001600020600082825403925050819055506001600360008473ffffffffffffffffffffffffffffffffffffffff1673ffffffffffffffffffffffffffffffffffffffff16815260200190815260200160002060008282540192505081905550816002600083815260200190815260200160002060006101000a81548173ffffffffffffffffffffffffffffffffffffffff021916908373ffffffffffffffffffffffffffffffffffffffff160217905550808273ffffffffffffffffffffffffffffffffffffffff168473ffffffffffffffffffffffffffffffffffffffff167fddf252ad1be2c89b69c2b068fc378daa952ba7f163c4a11628f55a4df523b3ef60405160405180910390a4611072838383600161144a565b505050565b60006002600083815260200190815260200160002060009054906101000a900473ffffffffffffffffffffffffffffffffffffffff169050919050565b6110bc610c28565b73ffffffffffffffffffffffffffffffffffffffff166110da61083c565b73ffffffffffffffffffffffffffffffffffffffff1614611130576040517f08c379a0000000000000000000000000000000000000000000000000000000008152600401611127906124b6565b60405180910390fd5b565b6000600660009054906101000a900473ffffffffffffffffffffffffffffffffffffffff16905081600660006101000a81548173ffffffffffffffffffffffffffffffffffffffff021916908373ffffffffffffffffffffffffffffffffffffffff1602179055508173ffffffffffffffffffffffffffffffffffffffff168173ffffffffffffffffffffffffffffffffffffffff167f8be0079c531659141344cd1fd0a4f28419497f9722a3daafe3b4186f6b6457e060405160405180910390a35050565b8173ffffffffffffffffffffffffffffffffffffffff168373ffffffffffffffffffffffffffffffffffffffff1603611266576040517f08c379a000000000000000000000000000000000000000000000000000000000815260040161125d90612522565b60405180910390fd5b80600560008573ffffffffffffffffffffffffffffffffffffffff1673ffffffffffffffffffffffffffffffffffffffff16815260200190815260200160002060008473ffffffffffffffffffffffffffffffffffffffff1673ffffffffffffffffffffffffffffffffffffffff16815260200190815260200160002060006101000a81548160ff0219169083151502179055508173ffffffffffffffffffffffffffffffffffffffff168373ffffffffffffffffffffffffffffffffffffffff167f17307eab39ab6107e8899845ad3d59bd9653f200f220920489ca2b5937696c3183604051611357919061195a565b60405180910390a3505050565b61136f848484610d7e565b61137b84848484611450565b6113ba576040517f08c379a00000000000000000000000000000000000000000000000000000000081526004016113b1906125b4565b60405180910390fd5b50505050565b6113da8282604051806020016040528060008152506115d7565b5050565b806008600084815260200190815260200160002090816113fe9190612780565b505050565b60008073ffffffffffffffffffffffffffffffffffffffff1661142583611077565b73ffffffffffffffffffffffffffffffffffffffff1614159050919050565b50505050565b50505050565b60006114718473ffffffffffffffffffffffffffffffffffffffff16611632565b156115ca578373ffffffffffffffffffffffffffffffffffffffff1663150b7a0261149a610c28565b8786866040518563ffffffff1660e01b81526004016114bc94939291906128a7565b6020604051808303816000875af19250505080156114f857506040513d601f19601f820116820180604052508101906114f59190612908565b60015b61157a573d8060008114611528576040519150601f19603f3d011682016040523d82523d6000602084013e61152d565b606091505b506000815103611572576040517f08c379a0000000000000000000000000000000000000000000000000000000008152600401611569906125b4565b60405180910390fd5b805181602001fd5b63150b7a0260e01b7bffffffffffffffffffffffffffffffffffffffffffffffffffffffff1916817bffffffffffffffffffffffffffffffffffffffffffffffffffffffff1916149150506115cf565b600190505b949350505050565b6115e18383611655565b6115ee6000848484611450565b61162d576040517f08c379a0000000000000000000000000000000000000000000000000000000008152600401611624906125b4565b60405180910390fd5b505050565b6000808273ffffffffffffffffffffffffffffffffffffffff163b119050919050565b600073ffffffffffffffffffffffffffffffffffffffff168273ffffffffffffffffffffffffffffffffffffffff16036116c4576040517f08c379a00000000000000000000000000000000000000000000000000000000081526004016116bb90612981565b60405180910390fd5b6116cd81611403565b1561170d576040517f08c379a0000000000000000000000000000000000000000000000000000000008152600401611704906129ed565b60405180910390fd5b61171b600083836001611444565b61172481611403565b15611764576040517f08c379a000000000000000000000000000000000000000000000000000000000815260040161175b906129ed565b60405180910390fd5b6001600360008473ffffffffffffffffffffffffffffffffffffffff1673ffffffffffffffffffffffffffffffffffffffff16815260200190815260200160002060008282540192505081905550816002600083815260200190815260200160002060006101000a81548173ffffffffffffffffffffffffffffffffffffffff021916908373ffffffffffffffffffffffffffffffffffffffff160217905550808273ffffffffffffffffffffffffffffffffffffffff16600073ffffffffffffffffffffffffffffffffffffffff167fddf252ad1be2c89b69c2b068fc378daa952ba7f163c4a11628f55a4df523b3ef60405160405180910390a461186e60008383600161144a565b5050565b6000819050919050565b61188581611872565b82525050565b60006020820190506118a0600083018461187c565b92915050565b6000604051905090565b600080fd5b600080fd5b60007fffffffff0000000000000000000000000000000000000000000000000000000082169050919050565b6118ef816118ba565b81146118fa57600080fd5b50565b60008135905061190c816118e6565b92915050565b600060208284031215611928576119276118b0565b5b6000611936848285016118fd565b91505092915050565b60008115159050919050565b6119548161193f565b82525050565b600060208201905061196f600083018461194b565b92915050565b600081519050919050565b600082825260208201905092915050565b60005b838110156119af578082015181840152602081019050611994565b60008484015250505050565b6000601f19601f8301169050919050565b60006119d782611975565b6119e18185611980565b93506119f1818560208601611991565b6119fa816119bb565b840191505092915050565b60006020820190508181036000830152611a1f81846119cc565b905092915050565b611a3081611872565b8114611a3b57600080fd5b50565b600081359050611a4d81611a27565b92915050565b600060208284031215611a6957611a686118b0565b5b6000611a7784828501611a3e565b91505092915050565b600073ffffffffffffffffffffffffffffffffffffffff82169050919050565b6000611aab82611a80565b9050919050565b611abb81611aa0565b82525050565b6000602082019050611ad66000830184611ab2565b92915050565b611ae581611aa0565b8114611af057600080fd5b50565b600081359050611b0281611adc565b92915050565b60008060408385031215611b1f57611b1e6118b0565b5b6000611b2d85828601611af3565b9250506020611b3e85828601611a3e565b9150509250929050565b600080600060608486031215611b6157611b606118b0565b5b6000611b6f86828701611af3565b9350506020611b8086828701611af3565b9250506040611b9186828701611a3e565b9150509250925092565b600060208284031215611bb157611bb06118b0565b5b6000611bbf84828501611af3565b91505092915050565b611bd18161193f565b8114611bdc57600080fd5b50565b600081359050611bee81611bc8565b92915050565b60008060408385031215611c0b57611c0a6118b0565b5b6000611c1985828601611af3565b9250506020611c2a85828601611bdf565b9150509250929050565b600080fd5b600080fd5b7f4e487b7100000000000000000000000000000000000000000000000000000000600052604160045260246000fd5b611c76826119bb565b810181811067ffffffffffffffff82111715611c9557611c94611c3e565b5b80604052505050565b6000611ca86118a6565b9050611cb48282611c6d565b919050565b600067ffffffffffffffff821115611cd457611cd3611c3e565b5b611cdd826119bb565b9050602081019050919050565b82818337600083830152505050565b6000611d0c611d0784611cb9565b611c9e565b905082815260208101848484011115611d2857611d27611c39565b5b611d33848285611cea565b509392505050565b600082601f830112611d5057611d4f611c34565b5b8135611d60848260208601611cf9565b91505092915050565b60008060008060808587031215611d8357611d826118b0565b5b6000611d9187828801611af3565b9450506020611da287828801611af3565b9350506040611db387828801611a3e565b925050606085013567ffffffffffffffff811115611dd457611dd36118b5565b5b611de087828801611d3b565b91505092959194509250565b60008060408385031215611e0357611e026118b0565b5b6000611e1185828601611af3565b9250506020611e2285828601611af3565b9150509250929050565b600067ffffffffffffffff821115611e4757611e46611c3e565b5b611e50826119bb565b9050602081019050919050565b6000611e70611e6b84611e2c565b611c9e565b905082815260208101848484011115611e8c57611e8b611c39565b5b611e97848285611cea565b509392505050565b600082601f830112611eb457611eb3611c34565b5b8135611ec4848260208601611e5d565b91505092915050565b60008060408385031215611ee457611ee36118b0565b5b6000611ef285828601611af3565b925050602083013567ffffffffffffffff811115611f1357611f126118b5565b5b611f1f85828601611e9f565b9150509250929050565b7f4e487b7100000000000000000000000000000000000000000000000000000000600052602260045260246000fd5b60006002820490506001821680611f7057607f821691505b602082108103611f8357611f82611f29565b5b50919050565b7f4552433732313a20617070726f76616c20746f2063757272656e74206f776e6560008201527f7200000000000000000000000000000000000000000000000000000000000000602082015250565b6000611fe5602183611980565b9150611ff082611f89565b604082019050919050565b6000602082019050818103600083015261201481611fd8565b9050919050565b7f4552433732313a20617070726f76652063616c6c6572206973206e6f7420746f60008201527f6b656e206f776e6572206f7220617070726f76656420666f7220616c6c000000602082015250565b6000612077603d83611980565b91506120828261201b565b604082019050919050565b600060208201905081810360008301526120a68161206a565b9050919050565b7f4552433732313a2063616c6c6572206973206e6f7420746f6b656e206f776e6560008201527f72206f7220617070726f76656400000000000000000000000000000000000000602082015250565b6000612109602d83611980565b9150612114826120ad565b604082019050919050565b60006020820190508181036000830152612138816120fc565b9050919050565b7f4552433732313a20696e76616c696420746f6b656e2049440000000000000000600082015250565b6000612175601883611980565b91506121808261213f565b602082019050919050565b600060208201905081810360008301526121a481612168565b9050919050565b7f4552433732313a2061646472657373207a65726f206973206e6f74206120766160008201527f6c6964206f776e65720000000000000000000000000000000000000000000000602082015250565b6000612207602983611980565b9150612212826121ab565b604082019050919050565b60006020820190508181036000830152612236816121fa565b9050919050565b7f4e487b7100000000000000000000000000000000000000000000000000000000600052601160045260246000fd5b600061227782611872565b91507fffffffffffffffffffffffffffffffffffffffffffffffffffffffffffffffff82036122a9576122a861223d565b5b600182019050919050565b7f4f776e61626c653a206e6577206f776e657220697320746865207a65726f206160008201527f6464726573730000000000000000000000000000000000000000000000000000602082015250565b6000612310602683611980565b915061231b826122b4565b604082019050919050565b6000602082019050818103600083015261233f81612303565b9050919050565b7f4552433732313a207472616e736665722066726f6d20696e636f72726563742060008201527f6f776e6572000000000000000000000000000000000000000000000000000000602082015250565b60006123a2602583611980565b91506123ad82612346565b604082019050919050565b600060208201905081810360008301526123d181612395565b9050919050565b7f4552433732313a207472616e7366657220746f20746865207a65726f2061646460008201527f7265737300000000000000000000000000000000000000000000000000000000602082015250565b6000612434602483611980565b915061243f826123d8565b604082019050919050565b6000602082019050818103600083015261246381612427565b9050919050565b7f4f776e61626c653a2063616c6c6572206973206e6f7420746865206f776e6572600082015250565b60006124a0602083611980565b91506124ab8261246a565b602082019050919050565b600060208201905081810360008301526124cf81612493565b9050919050565b7f4552433732313a20617070726f766520746f2063616c6c657200000000000000600082015250565b600061250c601983611980565b9150612517826124d6565b602082019050919050565b6000602082019050818103600083015261253b816124ff565b9050919050565b7f4552433732313a207472616e7366657220746f206e6f6e20455243373231526560008201527f63656976657220696d706c656d656e7465720000000000000000000000000000602082015250565b600061259e603283611980565b91506125a982612542565b604082019050919050565b600060208201905081810360008301526125cd81612591565b9050919050565b60008190508160005260206000209050919050565b60006020601f8301049050919050565b600082821b905092915050565b6000600883026126367fffffffffffffffffffffffffffffffffffffffffffffffffffffffffffffffff826125f9565b61264086836125f9565b95508019841693508086168417925050509392505050565b6000819050919050565b600061267d61267861267384611872565b612658565b611872565b9050919050565b6000819050919050565b61269783612662565b6126ab6126a382612684565b848454612606565b825550505050565b600090565b6126c06126b3565b6126cb81848461268e565b505050565b5b818110156126ef576126e46000826126b8565b6001810190506126d1565b5050565b601f82111561273457612705816125d4565b61270e846125e9565b8101602085101561271d578190505b612731612729856125e9565b8301826126d0565b50505b505050565b600082821c905092915050565b600061275760001984600802612739565b1980831691505092915050565b60006127708383612746565b9150826002028217905092915050565b61278982611975565b67ffffffffffffffff8111156127a2576127a1611c3e565b5b6127ac8254611f58565b6127b78282856126f3565b600060209050601f8311600181146127ea57600084156127d8578287015190505b6127e28582612764565b86555061284a565b601f1984166127f8866125d4565b60005b82811015612820578489015182556001820191506020850194506020810190506127fb565b8683101561283d5784890151612839601f891682612746565b8355505b6001600288020188555050505b505050505050565b600081519050919050565b600082825260208201905092915050565b600061287982612852565b612883818561285d565b9350612893818560208601611991565b61289c816119bb565b840191505092915050565b60006080820190506128bc6000830187611ab2565b6128c96020830186611ab2565b6128d6604083018561187c565b81810360608301526128e8818461286e565b905095945050505050565b600081519050612902816118e6565b92915050565b60006020828403121561291e5761291d6118b0565b5b600061292c848285016128f3565b91505092915050565b7f4552433732313a206d696e7420746f20746865207a65726f2061646472657373600082015250565b600061296b602083611980565b915061297682612935565b602082019050919050565b6000602082019050818103600083015261299a8161295e565b9050919050565b7f4552433732313a20746f6b656e20616c7265616479206d696e74656400000000600082015250565b60006129d7601c83611980565b91506129e2826129a1565b602082019050919050565b60006020820190508181036000830152612a06816129ca565b905091905056fea2646970667358221220f5255eec2a1314d31e5e1b13b01c048b494f5e3c60e206f6a1f873a7bbd9b13c64736f6c63430008140033",
  "linkReferences": {},
  "deployedLinkReferences": {}
}